{
  "_format": "hh-sol-artifact-1",
  "contractName": "Ublock",
  "sourceName": "contracts/Ublock.sol",
  "abi": [
    {
      "anonymous": false,
      "inputs": [
        {
          "indexed": true,
          "internalType": "uint256",
          "name": "evidenceId",
          "type": "uint256"
        },
        {
          "indexed": true,
          "internalType": "address",
          "name": "user",
          "type": "address"
        },
        {
          "indexed": false,
          "internalType": "uint256",
          "name": "timestamp",
          "type": "uint256"
        }
      ],
      "name": "EvidenceAccessed",
      "type": "event"
    },
    {
      "anonymous": false,
      "inputs": [
        {
          "indexed": true,
          "internalType": "uint256",
          "name": "id",
          "type": "uint256"
        },
        {
          "indexed": true,
          "internalType": "address",
          "name": "uploader",
          "type": "address"
        },
        {
          "indexed": false,
          "internalType": "uint256",
          "name": "timestamp",
          "type": "uint256"
        },
        {
          "indexed": false,
          "internalType": "string",
          "name": "ipfsHash",
          "type": "string"
        },
        {
          "indexed": false,
          "internalType": "string",
          "name": "fileType",
          "type": "string"
        }
      ],
      "name": "EvidenceRegistered",
      "type": "event"
    },
    {
      "inputs": [
        {
          "internalType": "uint256",
          "name": "_evidenceId",
          "type": "uint256"
        }
      ],
      "name": "getAccessLogs",
      "outputs": [
        {
          "internalType": "address[]",
          "name": "",
          "type": "address[]"
        },
        {
          "internalType": "uint256[]",
          "name": "",
          "type": "uint256[]"
        }
      ],
      "stateMutability": "view",
      "type": "function"
    },
    {
      "inputs": [],
      "name": "getAllAccessLogs",
      "outputs": [
        {
          "internalType": "address[]",
          "name": "",
          "type": "address[]"
        },
        {
          "internalType": "uint256[]",
          "name": "",
          "type": "uint256[]"
        },
        {
          "internalType": "uint256[]",
          "name": "",
          "type": "uint256[]"
        }
      ],
      "stateMutability": "view",
      "type": "function"
    },
    {
      "inputs": [
        {
          "internalType": "uint256",
          "name": "_id",
          "type": "uint256"
        }
      ],
      "name": "getEvidence",
      "outputs": [
        {
          "internalType": "uint256",
          "name": "",
          "type": "uint256"
        },
        {
          "internalType": "address",
          "name": "",
          "type": "address"
        },
        {
          "internalType": "uint256",
          "name": "",
          "type": "uint256"
        },
        {
          "internalType": "string",
          "name": "",
          "type": "string"
        },
        {
          "internalType": "string",
          "name": "",
          "type": "string"
        }
      ],
      "stateMutability": "nonpayable",
      "type": "function"
    },
    {
      "inputs": [],
      "name": "getTotalAccessLogs",
      "outputs": [
        {
          "internalType": "uint256",
          "name": "",
          "type": "uint256"
        }
      ],
      "stateMutability": "view",
      "type": "function"
    },
    {
      "inputs": [
        {
          "internalType": "uint256",
          "name": "_evidenceId",
          "type": "uint256"
        }
      ],
      "name": "getTotalAccessLogsForEvidence",
      "outputs": [
        {
          "internalType": "uint256",
          "name": "",
          "type": "uint256"
        }
      ],
      "stateMutability": "view",
      "type": "function"
    },
    {
      "inputs": [],
      "name": "getTotalEvidences",
      "outputs": [
        {
          "internalType": "uint256",
          "name": "",
          "type": "uint256"
        }
      ],
      "stateMutability": "view",
      "type": "function"
    },
    {
      "inputs": [
        {
          "internalType": "uint256",
          "name": "_evidenceId",
          "type": "uint256"
        }
      ],
      "name": "recordAccess",
      "outputs": [],
      "stateMutability": "nonpayable",
      "type": "function"
    },
    {
      "inputs": [
        {
          "internalType": "string",
          "name": "_ipfsHash",
          "type": "string"
        },
        {
          "internalType": "string",
          "name": "_fileType",
          "type": "string"
        }
      ],
      "name": "registerEvidence",
      "outputs": [],
      "stateMutability": "nonpayable",
      "type": "function"
    }
  ],
  "bytecode": "0x60806040526001600255348015601457600080fd5b50611814806100246000396000f3fe608060405234801561001057600080fd5b50600436106100885760003560e01c8063be6ff6f71161005b578063be6ff6f714610115578063c956f14314610146578063cb459ffd1461017a578063f795a6461461019a57610088565b8063089a0f051461008d57806344876153146100a957806355d5e362146100d957806363770810146100f7575b600080fd5b6100a760048036038101906100a29190610e78565b6101b6565b005b6100c360048036038101906100be9190610f26565b6103a2565b6040516100d09190610f62565b60405180910390f35b6100e1610411565b6040516100ee9190610f62565b60405180910390f35b6100ff61041e565b60405161010c9190610f62565b60405180910390f35b61012f600480360381019061012a9190610f26565b61042a565b60405161013d92919061112b565b60405180910390f35b610160600480360381019061015b9190610f26565b6106d3565b6040516101719594939291906111f0565b60405180910390f35b61018261092b565b60405161019193929190611251565b60405180910390f35b6101b460048036038101906101af9190610f26565b610b72565b005b60008251116101fa576040517f08c379a00000000000000000000000000000000000000000000000000000000081526004016101f1906112e9565b60405180910390fd5b600081511161023e576040517f08c379a000000000000000000000000000000000000000000000000000000000815260040161023590611355565b60405180910390fd5b60006040518060a0016040528060025481526020013373ffffffffffffffffffffffffffffffffffffffff1681526020014281526020018481526020018381525090806001815401808255809150506001900390600052602060002090600502016000909190919091506000820151816000015560208201518160010160006101000a81548173ffffffffffffffffffffffffffffffffffffffff021916908373ffffffffffffffffffffffffffffffffffffffff1602179055506040820151816002015560608201518160030190816103189190611581565b50608082015181600401908161032e9190611581565b5050503373ffffffffffffffffffffffffffffffffffffffff166002547ffed56c964305162fad17ccf73a8a0db0c8c16965bf711f02e45aea481460854d42858560405161037e93929190611653565b60405180910390a360026000815480929190610399906116c7565b91905055505050565b600080821180156103b4575060025482105b6103f3576040517f08c379a00000000000000000000000000000000000000000000000000000000081526004016103ea9061175b565b60405180910390fd5b60036000838152602001908152602001600020805490509050919050565b6000600180549050905090565b60008080549050905090565b60608060008311801561043e575060025483105b61047d576040517f08c379a00000000000000000000000000000000000000000000000000000000081526004016104749061175b565b60405180910390fd5b6000600360008581526020019081526020016000208054806020026020016040519081016040528092919081815260200182805480156104dc57602002820191906000526020600020905b8154815260200190600101908083116104c8575b505050505090506000815167ffffffffffffffff811115610500576104ff610d4d565b5b60405190808252806020026020018201604052801561052e5781602001602082028036833780820191505090505b5090506000825167ffffffffffffffff81111561054e5761054d610d4d565b5b60405190808252806020026020018201604052801561057c5781602001602082028036833780820191505090505b50905060005b83518110156106c457600060018583815181106105a2576105a161177b565b5b6020026020010151815481106105bb576105ba61177b565b5b90600052602060002090600302016040518060600160405290816000820160009054906101000a900473ffffffffffffffffffffffffffffffffffffffff1673ffffffffffffffffffffffffffffffffffffffff1673ffffffffffffffffffffffffffffffffffffffff16815260200160018201548152602001600282015481525050905080600001518483815181106106585761065761177b565b5b602002602001019073ffffffffffffffffffffffffffffffffffffffff16908173ffffffffffffffffffffffffffffffffffffffff168152505080602001518383815181106106aa576106a961177b565b5b602002602001018181525050508080600101915050610582565b50818194509450505050915091565b60008060006060806000861180156106ec575060025486105b61072b576040517f08c379a00000000000000000000000000000000000000000000000000000000081526004016107229061175b565b60405180910390fd5b61073486610bce565b60008060018861074491906117aa565b815481106107555761075461177b565b5b90600052602060002090600502016040518060a0016040529081600082015481526020016001820160009054906101000a900473ffffffffffffffffffffffffffffffffffffffff1673ffffffffffffffffffffffffffffffffffffffff1673ffffffffffffffffffffffffffffffffffffffff168152602001600282015481526020016003820180546107e8906113a4565b80601f0160208091040260200160405190810160405280929190818152602001828054610814906113a4565b80156108615780601f1061083657610100808354040283529160200191610861565b820191906000526020600020905b81548152906001019060200180831161084457829003601f168201915b5050505050815260200160048201805461087a906113a4565b80601f01602080910402602001604051908101604052809291908181526020018280546108a6906113a4565b80156108f35780601f106108c8576101008083540402835291602001916108f3565b820191906000526020600020905b8154815290600101906020018083116108d657829003601f168201915b505050505081525050905080600001518160200151826040015183606001518460800151955095509550955095505091939590929450565b6060806060600060018054905067ffffffffffffffff81111561095157610950610d4d565b5b60405190808252806020026020018201604052801561097f5781602001602082028036833780820191505090505b509050600060018054905067ffffffffffffffff8111156109a3576109a2610d4d565b5b6040519080825280602002602001820160405280156109d15781602001602082028036833780820191505090505b509050600060018054905067ffffffffffffffff8111156109f5576109f4610d4d565b5b604051908082528060200260200182016040528015610a235781602001602082028036833780820191505090505b50905060005b600180549050811015610b605760018181548110610a4a57610a4961177b565b5b906000526020600020906003020160000160009054906101000a900473ffffffffffffffffffffffffffffffffffffffff16848281518110610a8f57610a8e61177b565b5b602002602001019073ffffffffffffffffffffffffffffffffffffffff16908173ffffffffffffffffffffffffffffffffffffffff168152505060018181548110610add57610adc61177b565b5b906000526020600020906003020160010154838281518110610b0257610b0161177b565b5b60200260200101818152505060018181548110610b2257610b2161177b565b5b906000526020600020906003020160020154828281518110610b4757610b4661177b565b5b6020026020010181815250508080600101915050610a29565b50828282955095509550505050909192565b600081118015610b83575060025481105b610bc2576040517f08c379a0000000000000000000000000000000000000000000000000000000008152600401610bb99061175b565b60405180910390fd5b610bcb81610bce565b50565b60006001805490509050600160405180606001604052803373ffffffffffffffffffffffffffffffffffffffff16815260200142815260200184815250908060018154018082558091505060019003906000526020600020906003020160009091909190915060008201518160000160006101000a81548173ffffffffffffffffffffffffffffffffffffffff021916908373ffffffffffffffffffffffffffffffffffffffff16021790555060208201518160010155604082015181600201555050600360008381526020019081526020016000208190806001815401808255809150506001900390600052602060002001600090919091909150553373ffffffffffffffffffffffffffffffffffffffff16827fd947f40d1f6050096621ca946fe15326685bead59365ca12a7c6a12364234a9442604051610d129190610f62565b60405180910390a35050565b6000604051905090565b600080fd5b600080fd5b600080fd5b600080fd5b6000601f19601f8301169050919050565b7f4e487b7100000000000000000000000000000000000000000000000000000000600052604160045260246000fd5b610d8582610d3c565b810181811067ffffffffffffffff82111715610da457610da3610d4d565b5b80604052505050565b6000610db7610d1e565b9050610dc38282610d7c565b919050565b600067ffffffffffffffff821115610de357610de2610d4d565b5b610dec82610d3c565b9050602081019050919050565b82818337600083830152505050565b6000610e1b610e1684610dc8565b610dad565b905082815260208101848484011115610e3757610e36610d37565b5b610e42848285610df9565b509392505050565b600082601f830112610e5f57610e5e610d32565b5b8135610e6f848260208601610e08565b91505092915050565b60008060408385031215610e8f57610e8e610d28565b5b600083013567ffffffffffffffff811115610ead57610eac610d2d565b5b610eb985828601610e4a565b925050602083013567ffffffffffffffff811115610eda57610ed9610d2d565b5b610ee685828601610e4a565b9150509250929050565b6000819050919050565b610f0381610ef0565b8114610f0e57600080fd5b50565b600081359050610f2081610efa565b92915050565b600060208284031215610f3c57610f3b610d28565b5b6000610f4a84828501610f11565b91505092915050565b610f5c81610ef0565b82525050565b6000602082019050610f776000830184610f53565b92915050565b600081519050919050565b600082825260208201905092915050565b6000819050602082019050919050565b600073ffffffffffffffffffffffffffffffffffffffff82169050919050565b6000610fd482610fa9565b9050919050565b610fe481610fc9565b82525050565b6000610ff68383610fdb565b60208301905092915050565b6000602082019050919050565b600061101a82610f7d565b6110248185610f88565b935061102f83610f99565b8060005b838110156110605781516110478882610fea565b975061105283611002565b925050600181019050611033565b5085935050505092915050565b600081519050919050565b600082825260208201905092915050565b6000819050602082019050919050565b6110a281610ef0565b82525050565b60006110b48383611099565b60208301905092915050565b6000602082019050919050565b60006110d88261106d565b6110e28185611078565b93506110ed83611089565b8060005b8381101561111e57815161110588826110a8565b9750611110836110c0565b9250506001810190506110f1565b5085935050505092915050565b60006040820190508181036000830152611145818561100f565b9050818103602083015261115981846110cd565b90509392505050565b61116b81610fc9565b82525050565b600081519050919050565b600082825260208201905092915050565b60005b838110156111ab578082015181840152602081019050611190565b60008484015250505050565b60006111c282611171565b6111cc818561117c565b93506111dc81856020860161118d565b6111e581610d3c565b840191505092915050565b600060a0820190506112056000830188610f53565b6112126020830187611162565b61121f6040830186610f53565b818103606083015261123181856111b7565b9050818103608083015261124581846111b7565b90509695505050505050565b6000606082019050818103600083015261126b818661100f565b9050818103602083015261127f81856110cd565b9050818103604083015261129381846110cd565b9050949350505050565b7f4950465320686173682063616e6e6f7420626520656d70747900000000000000600082015250565b60006112d360198361117c565b91506112de8261129d565b602082019050919050565b60006020820190508181036000830152611302816112c6565b9050919050565b7f46696c6520747970652063616e6e6f7420626520656d70747900000000000000600082015250565b600061133f60198361117c565b915061134a82611309565b602082019050919050565b6000602082019050818103600083015261136e81611332565b9050919050565b7f4e487b7100000000000000000000000000000000000000000000000000000000600052602260045260246000fd5b600060028204905060018216806113bc57607f821691505b6020821081036113cf576113ce611375565b5b50919050565b60008190508160005260206000209050919050565b60006020601f8301049050919050565b600082821b905092915050565b6000600883026114377fffffffffffffffffffffffffffffffffffffffffffffffffffffffffffffffff826113fa565b61144186836113fa565b95508019841693508086168417925050509392505050565b6000819050919050565b600061147e61147961147484610ef0565b611459565b610ef0565b9050919050565b6000819050919050565b61149883611463565b6114ac6114a482611485565b848454611407565b825550505050565b600090565b6114c16114b4565b6114cc81848461148f565b505050565b5b818110156114f0576114e56000826114b9565b6001810190506114d2565b5050565b601f82111561153557611506816113d5565b61150f846113ea565b8101602085101561151e578190505b61153261152a856113ea565b8301826114d1565b50505b505050565b600082821c905092915050565b60006115586000198460080261153a565b1980831691505092915050565b60006115718383611547565b9150826002028217905092915050565b61158a82611171565b67ffffffffffffffff8111156115a3576115a2610d4d565b5b6115ad82546113a4565b6115b88282856114f4565b600060209050601f8311600181146115eb57600084156115d9578287015190505b6115e38582611565565b86555061164b565b601f1984166115f9866113d5565b60005b82811015611621578489015182556001820191506020850194506020810190506115fc565b8683101561163e578489015161163a601f891682611547565b8355505b6001600288020188555050505b505050505050565b60006060820190506116686000830186610f53565b818103602083015261167a81856111b7565b9050818103604083015261168e81846111b7565b9050949350505050565b7f4e487b7100000000000000000000000000000000000000000000000000000000600052601160045260246000fd5b60006116d282610ef0565b91507fffffffffffffffffffffffffffffffffffffffffffffffffffffffffffffffff820361170457611703611698565b5b600182019050919050565b7f496e76616c69642065766964656e636520494400000000000000000000000000600082015250565b600061174560138361117c565b91506117508261170f565b602082019050919050565b6000602082019050818103600083015261177481611738565b9050919050565b7f4e487b7100000000000000000000000000000000000000000000000000000000600052603260045260246000fd5b60006117b582610ef0565b91506117c083610ef0565b92508282039050818111156117d8576117d7611698565b5b9291505056fea2646970667358221220fe0d9a54c7bcb5cff923930e18c7189a29056af915266afc116ccad9736ac22d64736f6c634300081c0033",
  "linkReferences": {},
  "deployedLinkReferences": {}
}